:100000000C948F000C94A7050C94A7050C94A705DD
:100010000C94A7050C94E1040C94A7050C94A70577
:100020000C94A7050C94A7050C94A7050C94A705A0
:100030000C94A7050C94A7050C94BB000C947B04AE
:100040000C94A7050C94A7050C94A7050C94A70580
:100050000C94A7050C94A7050C94A7050C94A70570
:100060000C94A7050C94A7050C946F020C94A7059B
:100070000C94A7050C94A7050C94A7050C94A70550
:100080000C94A7050C94A7050C94A7050C94A70540
:100090000C94A7050C94A7050C94A7050C94A70530
:1000A0000C94A7050C94A7050C94A7050C94A70520
:1000B0000C94A7050C94A7050C94A7050C94A70510
:1000C0000C94A7050C94A7050C94A7050C94A70500
:1000D0000C94A7050C94A7050C941F030C94A7057A
:1000E0000C94A7050C94A7050C94A7050C94A705E0
:1000F0000C94A70505A84CCDB2D44EB93836A90248
:100100000C50B9918688083CA6AAAA2ABE00000015
:10011000803F400040C88040C840C9000B521124B5
:100120001FBECFEFCDBFDFE7DEBFE2E1F1E041E090
:1001300019C0B791A79137912791079107FD0EC07C
:1001400097918791EF01F92FE82F0BBF07900D9240
:10015000A217B307D9F7FE011BBE04C01D92A21758
:10016000B307E1F7EE31F40721F70E942F040C9456
:06017000B900F894FFCF76
:100176001F920F920FB60F9211240BB60F922F9368
:100186003F934F935F936F937F938F939F93AF9319
:10019600BF93EF93FF93E091C640F091C740EE0FF7
:1001A600FF1FE050F04C8081918188539348880F5F
:1001B600991F8093B9409093BA40E091C640F09160
:1001C600C740EE0FFF1FE050F04C80819181002464
:1001D600969587950794969587950794982F802DE1
:1001E6008093A2069093A3068091C6409091C74043
:1001F60001968093C6409093C7404091C640509167
:10020600C7409A013695279536952795A3E4B6E11A
:100216000E941505969587956CE5689F9001699FE4
:10022600300D1124CA01821B930B8093C640909314
:10023600C74081E08093060BFF91EF91BF91AF918C
:100246009F918F917F916F915F914F913F912F91E8
:0E0256000F900BBE0F900FBE0F901F901895CB
:100264000E94630558F00E945C0540F029F45F3F4A
:1002740029F00C94900551110C946B050C94A40571
:100284000E94D40368F39923B1F3552391F3951B8A
:10029400550BBB27AA2762177307840738F09F5FA3
:1002A4005F4F220F331F441FAA1FA9F335D00E2E10
:1002B4003AF0E0E832D091505040E695001CCAF77D
:1002C4002BD0FE2F29D0660F771F881FBB1F261740
:1002D40037074807AB07B0E809F0BB0B802DBF0117
:1002E400FF2793585F4F3AF09E3F510578F00C94E6
:1002F40090050C946B055F3FE4F3983ED4F3869528
:1003040077956795B795F7959F5FC9F7880F911D06
:100314009695879597F90895E1E0660F771F881FF2
:10032400BB1F621773078407BA0720F0621B730BA5
:0C033400840BBA0BEE1F88F7E0950895CB
:100340000E945C0538F00E94630520F0952311F0AF
:100350000C9490050C94A40511240C946B050E9438
:10036000D40370F3959FC1F3950F50E0551F629F22
:10037000F001729FBB27F00DB11D639FAA27F00DFE
:10038000B11DAA1F649F6627B00DA11D661F829F25
:100390002227B00DA11D621F739FB00DA11D621F0A
:1003A000839FA00D611D221F749F3327A00D611D27
:1003B000231F849F600D211D822F762F6A2F112409
:1003C0009F5750409AF0F1F088234AF0EE0FFF1F3C
:1003D000BB1F661F771F881F91505040A9F79E3F93
:1003E000510580F00C9490050C946B055F3FE4F38D
:1003F000983ED4F3869577956795B795F795E795E9
:100400009F5FC1F7FE2B880F911D9695879597F9F1
:0204100008954D
:100412000E945C0538F00E94630520F039F49F3F8A
:1004220019F426F40C94A4050EF4E095E7FB0C9461
:100432009005E92F0E94D40358F3BA176207730795
:100442008407950720F079F4A6F50C946A050EF45A
:10045200E0950B2EBA2FA02D0B01B90190010C01D2
:10046200CA01A0011124FF27591B99F0593F50F4EA
:10047200503E68F11A16F040A22F232F342F442742
:10048200585FF3CF469537952795A795F04053953A
:10049200C9F77EF41F16BA0B620B730B840BBAF00A
:1004A2009150A1F0FF0FBB1F661F771F881FC2F775
:1004B2000EC0BA0F621F731F841F48F48795779589
:1004C2006795B795F7959E3F08F0B0CF9395880F43
:0C04D20008F09927EE0F97958795089584
:1004DE001F920F920FB60F9211240BB60F922F93FD
:1004EE003F934F935F936F937F938F939F93AF93AE
:1004FE00BF93EF93FF93E8EBF0E481E08683809166
:10050E0010069091110695958795959587959C0166
:10051E00220F331F820F931F880F991F838394839B
:10052E000E94F304FF91EF91BF91AF919F918F9134
:10053E007F916F915F914F913F912F910F900BBED5
:0A054E000F900FBE0F901F9018953C
:10055800E89409C097FB3EF4909580957095619555
:100568007F4F8F4F9F4F9923A9F0F92F96E9BB270B
:100578009395F695879577956795B795F111F8CF87
:10058800FAF4BB0F11F460FF1BC06F5F7F4F8F4FF2
:100598009F4F16C0882311F096E911C0772321F0E8
:1005A8009EE8872F762F05C0662371F096E8862F80
:1005B80070E060E02AF09A95660F771F881FDAF7D7
:0A05C800880F9695879597F908951E
:1005D2000F931F93CF93DF9300E010E4C0E0D0E0CD
:1005E200BE0180E090E00E94AC022BED3FE049ECBE
:1005F20050E40E94A00520E030E048EB52E40E9463
:100602009C050E94460520E030E04CE752E40E943F
:10061200A00520E030E04EE454E40E9456050E941A
:100622005303F801619371938F012196CC35D10563
:0C063200B9F6DF91CF911F910F91089550
:10063E001F920F920FB60F9211240BB60F928F933B
:10064E00EF93FF938091BE408823E1F08091C840E4
:10065E00863070F4E091C840F0E0E154FF4B8081A9
:10066E00809362088091C8408F5F8093C8400AC013
:10067E0081E08093C8401092BE40E0E6F8E08581AC
:10068E008F7D8583FF91EF918F910F900BBE0F9011
:08069E000FBE0F901F9018958C
:1006A6000E94DC0388F09F5798F0B92F9927B7511D
:1006B600B0F0E1F0660F771F881F991F1AF0BA9500
:1006C600C9F714C0B13091F00E946A05B1E00895EF
:1006D6000C946A05672F782F8827B85F39F0B93FE1
:1006E600CCF3869577956795B395D9F73EF49095B3
:0E06F6008095709561957F4F8F4F9F4F0895AF
:100704000C94A4050E94DC03D8F3E894E0E0BB2732
:100714009F57F0F02AED3FE049EC06C0EE0FBB0F07
:10072400661F771F881F28F0B23A62077307840791
:1007340028F0B25A620B730B840BE3959A9572F707
:10074400803830F49A95BB0F661F771F881FD2F745
:0607540090480C942605FC
:10075A00DF93CF931F930F93FF92EF92DF927B0168
:10076A008C01689406C0DA2EEF010E94AF01FE01E7
:10077A00E894A5912591359145915591A6F3EF01FC
:10078A000E941A02FE019701A801DA9469F7DF9024
:0E079A00EF90FF900F911F91CF91DF91089586
:1007A80057FD9058440F551F59F05F3F71F047951A
:1007B800880F97FB991F61F09F3F79F087950895FF
:1007C800121613061406551FF2CF4695F1DF08C01E
:1007D800161617061806991FF1CF8695710561053B
:0407E80008940895D4
:1007EC00E0E0F7E087E1828395E0908B84E2838BF5
:1007FC00128A8FE7848B908F92E1938F91EB928F7B
:10080C00848F81E0808321E08189918D81708217B2
:0A081C0019F091709213F8CF0895BF
:10082600E0E6F4E084E0828B858B868BE0E0F6E000
:1008360083E0828385E88093B00085E2808385E04B
:10084600808786E081878AE0858381E0848782E0ED
:0808560081830E943205089520
:10085E0064E288E690E00E9496050E944E050E9492
:10086E008A050E9491040E9463040E94A5040E94BE
:10087E0013040E947E050E9478050E94F6030E94D2
:06088E0084057894FFCF01
:10089400CF92DF92EF92DC016A01E62E280F391F16
:1008A400A217B30751F0F6015E2D0E9471056D93F6
:1008B4004FEFC41AD40AE40AF3CFEF90DF90CF903D
:0208C400089595
:1008C6000E94E90284E080937604E0EBF0E0828106
:1008D6008168828388EC8A95F1F7E0EAF6E080E0A9
:1008E6009EEC8283938381E480830E943C05089575
:1008F6001F920F920FB60F9211248F938091BE40D4
:10090600811103C081E080930A0681E08093160B73
:0C0916008F910F900FBE0F901F9018954E
:10092200E0E4F1E081818111FDCFE0E4F1E08FEFBD
:1009320091E082879387178288EA808383E08383AA
:08094200828181608283089527
:10094A002198209AE0E6F8E081E493E08087918795
:10095A0083E087838681806C8683E8EBF0E485E513
:08096A0080838AEA8583089569
:10097200EF93E0FF07C0A2EA2AED3FE049EC5FEB0C
:100982000E941A020E9404050F90039401FC9058E1
:08099200E4EFF0E00C94CD0449
:10099A009F938F937F936F93FF93EF939B01AC0188
:1009AA000E94A005EF91FF910E94AD032F913F9104
:0809BA004F915F910C94A00520
:1009C2001F920F920FB60F9211248F9381E08093A2
:1009D200430188E0809327048F910F900FBE0F9000
:0409E2001F901895B5
:1009E60048EB50E460E827E030E08FEB90E40E94AB
:1009F6004A04E0E6F8E080E285838091BF40828386
:020A0600089551
:100A0800092E0394000C11F4882352F0BB0F40F414
:100A1800BF2B11F460FF04C06F5F7F4F8F4F9F4F54
:020A280008952F
:100A2A00A29FB001B39FC001A39F700D811D112425
:0E0A3A00911DB29F700D811D1124911D089514
:100A48009F3F31F0915020F4879577956795B7953A
:0C0A5800880F911D9695879597F90895D9
:100A6400E0E1FBE080E395E784879587108281E0ED
:040A740085830895D9
:100A7800E0E0FBE082EC98E284879587108281E0D1
:040A880085830895C5
:100A8C009F930E9484030F9007FCEE5F0C94B904B3
:0E0A9C00E0E6F4E084E0828B858B868B089583
:0E0AAA005058BB27AA270E941A020C9404057C
:0E0AB80000240A94161617061806090608955B
:0E0AC60000240A94121613061406050608955D
:0E0AD400E894BB2766277727CB0197F9089592
:0E0AE20057FD03C05BBF6791089560810895C2
:0C0AF000E0E1FBE08081816080830895DC
:0C0AFC00E0E0FBE08081816080830895D1
:0C0B0800E0E4F1E08081816080830895CA
:0C0B1400E0E2F4E08081886080830895B6
:0C0B200097F99F6780E870E060E008959E
:0C0B2C00DC0128ED209334006C93089548
:080B38000E9442010C94040527
:080B40000E94AF010C940405B2
:060B48009FEF80EC089510
:040B4E000C94000003
:010B520001A1
:02000004008278
:090000000000000000C00800002F
:02000004008377
:040000005CC5C55CBA
:00000001FF
